{
  "_format": "hh-sol-artifact-1",
  "contractName": "TestTokenProxy",
  "sourceName": "contracts/Trabajo24.sol",
  "abi": [
    {
      "inputs": [],
      "stateMutability": "nonpayable",
      "type": "constructor"
    },
    {
      "inputs": [
        {
          "internalType": "address",
          "name": "target",
          "type": "address"
        }
      ],
      "name": "AddressEmptyCode",
      "type": "error"
    },
    {
      "inputs": [
        {
          "internalType": "address",
          "name": "implementation",
          "type": "address"
        }
      ],
      "name": "ERC1967InvalidImplementation",
      "type": "error"
    },
    {
      "inputs": [],
      "name": "ERC1967NonPayable",
      "type": "error"
    },
    {
      "inputs": [
        {
          "internalType": "address",
          "name": "spender",
          "type": "address"
        },
        {
          "internalType": "uint256",
          "name": "allowance",
          "type": "uint256"
        },
        {
          "internalType": "uint256",
          "name": "needed",
          "type": "uint256"
        }
      ],
      "name": "ERC20InsufficientAllowance",
      "type": "error"
    },
    {
      "inputs": [
        {
          "internalType": "address",
          "name": "sender",
          "type": "address"
        },
        {
          "internalType": "uint256",
          "name": "balance",
          "type": "uint256"
        },
        {
          "internalType": "uint256",
          "name": "needed",
          "type": "uint256"
        }
      ],
      "name": "ERC20InsufficientBalance",
      "type": "error"
    },
    {
      "inputs": [
        {
          "internalType": "address",
          "name": "approver",
          "type": "address"
        }
      ],
      "name": "ERC20InvalidApprover",
      "type": "error"
    },
    {
      "inputs": [
        {
          "internalType": "address",
          "name": "receiver",
          "type": "address"
        }
      ],
      "name": "ERC20InvalidReceiver",
      "type": "error"
    },
    {
      "inputs": [
        {
          "internalType": "address",
          "name": "sender",
          "type": "address"
        }
      ],
      "name": "ERC20InvalidSender",
      "type": "error"
    },
    {
      "inputs": [
        {
          "internalType": "address",
          "name": "spender",
          "type": "address"
        }
      ],
      "name": "ERC20InvalidSpender",
      "type": "error"
    },
    {
      "inputs": [],
      "name": "FailedInnerCall",
      "type": "error"
    },
    {
      "inputs": [],
      "name": "InvalidInitialization",
      "type": "error"
    },
    {
      "inputs": [],
      "name": "NotInitializing",
      "type": "error"
    },
    {
      "inputs": [
        {
          "internalType": "address",
          "name": "owner",
          "type": "address"
        }
      ],
      "name": "OwnableInvalidOwner",
      "type": "error"
    },
    {
      "inputs": [
        {
          "internalType": "address",
          "name": "account",
          "type": "address"
        }
      ],
      "name": "OwnableUnauthorizedAccount",
      "type": "error"
    },
    {
      "inputs": [],
      "name": "UUPSUnauthorizedCallContext",
      "type": "error"
    },
    {
      "inputs": [
        {
          "internalType": "bytes32",
          "name": "slot",
          "type": "bytes32"
        }
      ],
      "name": "UUPSUnsupportedProxiableUUID",
      "type": "error"
    },
    {
      "anonymous": false,
      "inputs": [
        {
          "indexed": true,
          "internalType": "address",
          "name": "owner",
          "type": "address"
        },
        {
          "indexed": true,
          "internalType": "address",
          "name": "spender",
          "type": "address"
        },
        {
          "indexed": false,
          "internalType": "uint256",
          "name": "value",
          "type": "uint256"
        }
      ],
      "name": "Approval",
      "type": "event"
    },
    {
      "anonymous": false,
      "inputs": [
        {
          "indexed": false,
          "internalType": "uint64",
          "name": "version",
          "type": "uint64"
        }
      ],
      "name": "Initialized",
      "type": "event"
    },
    {
      "anonymous": false,
      "inputs": [
        {
          "indexed": true,
          "internalType": "address",
          "name": "previousOwner",
          "type": "address"
        },
        {
          "indexed": true,
          "internalType": "address",
          "name": "newOwner",
          "type": "address"
        }
      ],
      "name": "OwnershipTransferred",
      "type": "event"
    },
    {
      "anonymous": false,
      "inputs": [
        {
          "indexed": true,
          "internalType": "address",
          "name": "from",
          "type": "address"
        },
        {
          "indexed": true,
          "internalType": "address",
          "name": "to",
          "type": "address"
        },
        {
          "indexed": false,
          "internalType": "uint256",
          "name": "value",
          "type": "uint256"
        }
      ],
      "name": "Transfer",
      "type": "event"
    },
    {
      "anonymous": false,
      "inputs": [
        {
          "indexed": false,
          "internalType": "address",
          "name": "_updatedDevelopmentWallet",
          "type": "address"
        }
      ],
      "name": "UpdatedDevelopmentWallet",
      "type": "event"
    },
    {
      "anonymous": false,
      "inputs": [
        {
          "indexed": false,
          "internalType": "address",
          "name": "_updatedMarketingWallet",
          "type": "address"
        }
      ],
      "name": "UpdatedMarketingWallet",
      "type": "event"
    },
    {
      "anonymous": false,
      "inputs": [
        {
          "indexed": false,
          "internalType": "uint256",
          "name": "_updatedMarketingWalletTax",
          "type": "uint256"
        }
      ],
      "name": "UpdatedMarketingWalletTax",
      "type": "event"
    },
    {
      "anonymous": false,
      "inputs": [
        {
          "indexed": false,
          "internalType": "uint256",
          "name": "_updatedMaxAmount",
          "type": "uint256"
        }
      ],
      "name": "UpdatedMaxAmount",
      "type": "event"
    },
    {
      "anonymous": false,
      "inputs": [
        {
          "indexed": false,
          "internalType": "address",
          "name": "_updatedSustainabilityWallet",
          "type": "address"
        }
      ],
      "name": "UpdatedSustainabilityWallet",
      "type": "event"
    },
    {
      "anonymous": false,
      "inputs": [
        {
          "indexed": false,
          "internalType": "uint256",
          "name": "_updatedtDevelopmentWalletTax",
          "type": "uint256"
        }
      ],
      "name": "UpdatedtDevelopmentWalletTax",
      "type": "event"
    },
    {
      "anonymous": false,
      "inputs": [
        {
          "indexed": false,
          "internalType": "uint256",
          "name": "_updatedtSustainabilityWalletTax",
          "type": "uint256"
        }
      ],
      "name": "UpdatedtSustainabilityWalletTax",
      "type": "event"
    },
    {
      "anonymous": false,
      "inputs": [
        {
          "indexed": true,
          "internalType": "address",
          "name": "implementation",
          "type": "address"
        }
      ],
      "name": "Upgraded",
      "type": "event"
    },
    {
      "inputs": [],
      "name": "UPGRADE_INTERFACE_VERSION",
      "outputs": [
        {
          "internalType": "string",
          "name": "",
          "type": "string"
        }
      ],
      "stateMutability": "view",
      "type": "function"
    },
    {
      "inputs": [
        {
          "internalType": "address",
          "name": "account",
          "type": "address"
        }
      ],
      "name": "addToBlacklist",
      "outputs": [],
      "stateMutability": "nonpayable",
      "type": "function"
    },
    {
      "inputs": [
        {
          "internalType": "address",
          "name": "owner",
          "type": "address"
        },
        {
          "internalType": "address",
          "name": "spender",
          "type": "address"
        }
      ],
      "name": "allowance",
      "outputs": [
        {
          "internalType": "uint256",
          "name": "",
          "type": "uint256"
        }
      ],
      "stateMutability": "view",
      "type": "function"
    },
    {
      "inputs": [
        {
          "internalType": "address",
          "name": "spender",
          "type": "address"
        },
        {
          "internalType": "uint256",
          "name": "value",
          "type": "uint256"
        }
      ],
      "name": "approve",
      "outputs": [
        {
          "internalType": "bool",
          "name": "",
          "type": "bool"
        }
      ],
      "stateMutability": "nonpayable",
      "type": "function"
    },
    {
      "inputs": [
        {
          "internalType": "address",
          "name": "account",
          "type": "address"
        }
      ],
      "name": "balanceOf",
      "outputs": [
        {
          "internalType": "uint256",
          "name": "",
          "type": "uint256"
        }
      ],
      "stateMutability": "view",
      "type": "function"
    },
    {
      "inputs": [
        {
          "internalType": "uint256",
          "name": "value",
          "type": "uint256"
        }
      ],
      "name": "burn",
      "outputs": [],
      "stateMutability": "nonpayable",
      "type": "function"
    },
    {
      "inputs": [
        {
          "internalType": "address",
          "name": "account",
          "type": "address"
        },
        {
          "internalType": "uint256",
          "name": "value",
          "type": "uint256"
        }
      ],
      "name": "burnFrom",
      "outputs": [],
      "stateMutability": "nonpayable",
      "type": "function"
    },
    {
      "inputs": [],
      "name": "decimals",
      "outputs": [
        {
          "internalType": "uint8",
          "name": "",
          "type": "uint8"
        }
      ],
      "stateMutability": "view",
      "type": "function"
    },
    {
      "inputs": [],
      "name": "developmentWallet",
      "outputs": [
        {
          "internalType": "address",
          "name": "",
          "type": "address"
        }
      ],
      "stateMutability": "view",
      "type": "function"
    },
    {
      "inputs": [],
      "name": "developmentWalletTax",
      "outputs": [
        {
          "internalType": "uint256",
          "name": "",
          "type": "uint256"
        }
      ],
      "stateMutability": "view",
      "type": "function"
    },
    {
      "inputs": [
        {
          "internalType": "address",
          "name": "mutisig",
          "type": "address"
        }
      ],
      "name": "initialize",
      "outputs": [],
      "stateMutability": "nonpayable",
      "type": "function"
    },
    {
      "inputs": [
        {
          "internalType": "address",
          "name": "account",
          "type": "address"
        }
      ],
      "name": "isBlacklisted",
      "outputs": [
        {
          "internalType": "bool",
          "name": "",
          "type": "bool"
        }
      ],
      "stateMutability": "view",
      "type": "function"
    },
    {
      "inputs": [],
      "name": "marketingWallet",
      "outputs": [
        {
          "internalType": "address",
          "name": "",
          "type": "address"
        }
      ],
      "stateMutability": "view",
      "type": "function"
    },
    {
      "inputs": [],
      "name": "marketingWalletTax",
      "outputs": [
        {
          "internalType": "uint256",
          "name": "",
          "type": "uint256"
        }
      ],
      "stateMutability": "view",
      "type": "function"
    },
    {
      "inputs": [],
      "name": "maxTransactionAmount",
      "outputs": [
        {
          "internalType": "uint256",
          "name": "",
          "type": "uint256"
        }
      ],
      "stateMutability": "view",
      "type": "function"
    },
    {
      "inputs": [
        {
          "internalType": "address",
          "name": "to",
          "type": "address"
        },
        {
          "internalType": "uint256",
          "name": "amount",
          "type": "uint256"
        }
      ],
      "name": "mint",
      "outputs": [],
      "stateMutability": "nonpayable",
      "type": "function"
    },
    {
      "inputs": [],
      "name": "name",
      "outputs": [
        {
          "internalType": "string",
          "name": "",
          "type": "string"
        }
      ],
      "stateMutability": "view",
      "type": "function"
    },
    {
      "inputs": [],
      "name": "owner",
      "outputs": [
        {
          "internalType": "address",
          "name": "",
          "type": "address"
        }
      ],
      "stateMutability": "view",
      "type": "function"
    },
    {
      "inputs": [],
      "name": "proxiableUUID",
      "outputs": [
        {
          "internalType": "bytes32",
          "name": "",
          "type": "bytes32"
        }
      ],
      "stateMutability": "view",
      "type": "function"
    },
    {
      "inputs": [
        {
          "internalType": "address",
          "name": "account",
          "type": "address"
        }
      ],
      "name": "removeFromBlacklist",
      "outputs": [],
      "stateMutability": "nonpayable",
      "type": "function"
    },
    {
      "inputs": [],
      "name": "renounceOwnership",
      "outputs": [],
      "stateMutability": "nonpayable",
      "type": "function"
    },
    {
      "inputs": [
        {
          "internalType": "address",
          "name": "_wallet",
          "type": "address"
        }
      ],
      "name": "setDevelopmentWallet",
      "outputs": [],
      "stateMutability": "nonpayable",
      "type": "function"
    },
    {
      "inputs": [
        {
          "internalType": "uint256",
          "name": "_taxPercentage",
          "type": "uint256"
        }
      ],
      "name": "setDevelopmentWalletTax",
      "outputs": [],
      "stateMutability": "nonpayable",
      "type": "function"
    },
    {
      "inputs": [
        {
          "internalType": "address",
          "name": "_wallet",
          "type": "address"
        }
      ],
      "name": "setMarketingWallet",
      "outputs": [],
      "stateMutability": "nonpayable",
      "type": "function"
    },
    {
      "inputs": [
        {
          "internalType": "uint256",
          "name": "_taxPercentage",
          "type": "uint256"
        }
      ],
      "name": "setMarketingWalletTax",
      "outputs": [],
      "stateMutability": "nonpayable",
      "type": "function"
    },
    {
      "inputs": [
        {
          "internalType": "address",
          "name": "_wallet",
          "type": "address"
        }
      ],
      "name": "setSustainabilityWallet",
      "outputs": [],
      "stateMutability": "nonpayable",
      "type": "function"
    },
    {
      "inputs": [
        {
          "internalType": "uint256",
          "name": "_taxPercentage",
          "type": "uint256"
        }
      ],
      "name": "setSustainabilityWalletTax",
      "outputs": [],
      "stateMutability": "nonpayable",
      "type": "function"
    },
    {
      "inputs": [],
      "name": "sustainabilityWallet",
      "outputs": [
        {
          "internalType": "address",
          "name": "",
          "type": "address"
        }
      ],
      "stateMutability": "view",
      "type": "function"
    },
    {
      "inputs": [],
      "name": "sustainabilityWalletTax",
      "outputs": [
        {
          "internalType": "uint256",
          "name": "",
          "type": "uint256"
        }
      ],
      "stateMutability": "view",
      "type": "function"
    },
    {
      "inputs": [],
      "name": "symbol",
      "outputs": [
        {
          "internalType": "string",
          "name": "",
          "type": "string"
        }
      ],
      "stateMutability": "view",
      "type": "function"
    },
    {
      "inputs": [],
      "name": "totalSupply",
      "outputs": [
        {
          "internalType": "uint256",
          "name": "",
          "type": "uint256"
        }
      ],
      "stateMutability": "view",
      "type": "function"
    },
    {
      "inputs": [
        {
          "internalType": "address",
          "name": "to",
          "type": "address"
        },
        {
          "internalType": "uint256",
          "name": "value",
          "type": "uint256"
        }
      ],
      "name": "transfer",
      "outputs": [
        {
          "internalType": "bool",
          "name": "",
          "type": "bool"
        }
      ],
      "stateMutability": "nonpayable",
      "type": "function"
    },
    {
      "inputs": [
        {
          "internalType": "address",
          "name": "from",
          "type": "address"
        },
        {
          "internalType": "address",
          "name": "to",
          "type": "address"
        },
        {
          "internalType": "uint256",
          "name": "value",
          "type": "uint256"
        }
      ],
      "name": "transferFrom",
      "outputs": [
        {
          "internalType": "bool",
          "name": "",
          "type": "bool"
        }
      ],
      "stateMutability": "nonpayable",
      "type": "function"
    },
    {
      "inputs": [
        {
          "internalType": "address",
          "name": "newOwner",
          "type": "address"
        }
      ],
      "name": "transferOwnership",
      "outputs": [],
      "stateMutability": "nonpayable",
      "type": "function"
    },
    {
      "inputs": [],
      "name": "uniswapPair",
      "outputs": [
        {
          "internalType": "address",
          "name": "",
          "type": "address"
        }
      ],
      "stateMutability": "view",
      "type": "function"
    },
    {
      "inputs": [],
      "name": "uniswapV2Router",
      "outputs": [
        {
          "internalType": "contract IUniswapV2Router02",
          "name": "",
          "type": "address"
        }
      ],
      "stateMutability": "view",
      "type": "function"
    },
    {
      "inputs": [
        {
          "internalType": "address",
          "name": "newImplementation",
          "type": "address"
        },
        {
          "internalType": "bytes",
          "name": "data",
          "type": "bytes"
        }
      ],
      "name": "upgradeToAndCall",
      "outputs": [],
      "stateMutability": "payable",
      "type": "function"
    }
  ],
  "bytecode": "0x60a06040523073ffffffffffffffffffffffffffffffffffffffff1660809073ffffffffffffffffffffffffffffffffffffffff168152503480156200004457600080fd5b50620000556200005b60201b60201c565b620001cf565b60006200006d6200016560201b60201c565b90508060000160089054906101000a900460ff1615620000b9576040517ff92ee8a900000000000000000000000000000000000000000000000000000000815260040160405180910390fd5b67ffffffffffffffff80168160000160009054906101000a900467ffffffffffffffff1667ffffffffffffffff1614620001625767ffffffffffffffff8160000160006101000a81548167ffffffffffffffff021916908367ffffffffffffffff1602179055507fc7f505b2f371ae2175ee4913f4499e1f2633a7b5936321eed1cdaeb6115181d267ffffffffffffffff604051620001599190620001b2565b60405180910390a15b50565b60007ff0c57e16840df040f15088dc2f81fe391c3923bec73e23a9662efc9c229c6a00905090565b600067ffffffffffffffff82169050919050565b620001ac816200018d565b82525050565b6000602082019050620001c96000830184620001a1565b92915050565b60805161437f620001f960003960008181611f7701528181611fcc0152612187015261437f6000f3fe60806040526004361061021a5760003560e01c806375f0a87411610123578063be20b15d116100ab578063dd62ed3e1161006f578063dd62ed3e1461078c578063e7d88de5146107c9578063f2fde38b146107f4578063fe575a871461081d578063fedcb8611461085a5761021a565b8063be20b15d146106b9578063c04a5414146106e2578063c4d66de81461070d578063c816841b14610736578063c8c8ebe4146107615761021a565b806388696f2f116100f257806388696f2f146105d25780638da5cb5b146105fb57806395d89b4114610626578063a9059cbb14610651578063ad3cb1cc1461068e5761021a565b806375f0a8741461052a57806379cc6790146105555780638206cf5a1461057e57806385fbae56146105a95761021a565b806344337ea1116101a65780635d098b38116101755780635d098b381461045b5780636ddfa4b41461048457806370a08231146104ad578063715018a6146104ea57806372ac2486146105015761021a565b806344337ea1146103c25780634f1ef286146103eb57806352d1902d14610407578063537df3b6146104325761021a565b806318160ddd116101ed57806318160ddd146102dd57806323b872dd14610308578063313ce5671461034557806340c10f191461037057806342966c68146103995761021a565b806306fdde031461021f578063095ea7b31461024a57806311e91b84146102875780631694505e146102b2575b600080fd5b34801561022b57600080fd5b50610234610885565b604051610241919061314d565b60405180910390f35b34801561025657600080fd5b50610271600480360381019061026c9190613217565b610926565b60405161027e9190613272565b60405180910390f35b34801561029357600080fd5b5061029c610949565b6040516102a9919061329c565b60405180910390f35b3480156102be57600080fd5b506102c761094f565b6040516102d49190613316565b60405180910390f35b3480156102e957600080fd5b506102f2610975565b6040516102ff919061329c565b60405180910390f35b34801561031457600080fd5b5061032f600480360381019061032a9190613331565b61098d565b60405161033c9190613272565b60405180910390f35b34801561035157600080fd5b5061035a6109bc565b60405161036791906133a0565b60405180910390f35b34801561037c57600080fd5b5061039760048036038101906103929190613217565b6109c5565b005b3480156103a557600080fd5b506103c060048036038101906103bb91906133bb565b6109db565b005b3480156103ce57600080fd5b506103e960048036038101906103e491906133e8565b6109ef565b005b6104056004803603810190610400919061354a565b610b54565b005b34801561041357600080fd5b5061041c610b73565b60405161042991906135bf565b60405180910390f35b34801561043e57600080fd5b50610459600480360381019061045491906133e8565b610ba6565b005b34801561046757600080fd5b50610482600480360381019061047d91906133e8565b610d0a565b005b34801561049057600080fd5b506104ab60048036038101906104a691906133bb565b610e1b565b005b3480156104b957600080fd5b506104d460048036038101906104cf91906133e8565b610eab565b6040516104e1919061329c565b60405180910390f35b3480156104f657600080fd5b506104ff610f02565b005b34801561050d57600080fd5b50610528600480360381019061052391906133e8565b610f16565b005b34801561053657600080fd5b5061053f61102a565b60405161054c91906135e9565b60405180910390f35b34801561056157600080fd5b5061057c60048036038101906105779190613217565b61104e565b005b34801561058a57600080fd5b5061059361106e565b6040516105a0919061329c565b60405180910390f35b3480156105b557600080fd5b506105d060048036038101906105cb91906133bb565b611074565b005b3480156105de57600080fd5b506105f960048036038101906105f491906133bb565b611104565b005b34801561060757600080fd5b50610610611194565b60405161061d91906135e9565b60405180910390f35b34801561063257600080fd5b5061063b6111cc565b604051610648919061314d565b60405180910390f35b34801561065d57600080fd5b5061067860048036038101906106739190613217565b61126d565b6040516106859190613272565b60405180910390f35b34801561069a57600080fd5b506106a3611290565b6040516106b0919061314d565b60405180910390f35b3480156106c557600080fd5b506106e060048036038101906106db91906133e8565b6112c9565b005b3480156106ee57600080fd5b506106f76113dd565b60405161070491906135e9565b60405180910390f35b34801561071957600080fd5b50610734600480360381019061072f91906133e8565b611403565b005b34801561074257600080fd5b5061074b611a57565b60405161075891906135e9565b60405180910390f35b34801561076d57600080fd5b50610776611a7d565b604051610783919061329c565b60405180910390f35b34801561079857600080fd5b506107b360048036038101906107ae9190613604565b611a83565b6040516107c0919061329c565b60405180910390f35b3480156107d557600080fd5b506107de611b18565b6040516107eb919061329c565b60405180910390f35b34801561080057600080fd5b5061081b600480360381019061081691906133e8565b611b1e565b005b34801561082957600080fd5b50610844600480360381019061083f91906133e8565b611ba4565b6040516108519190613272565b60405180910390f35b34801561086657600080fd5b5061086f611bfa565b60405161087c91906135e9565b60405180910390f35b60606000610891611c20565b90508060030180546108a290613673565b80601f01602080910402602001604051908101604052809291908181526020018280546108ce90613673565b801561091b5780601f106108f05761010080835404028352916020019161091b565b820191906000526020600020905b8154815290600101906020018083116108fe57829003601f168201915b505050505091505090565b600080610931611c48565b905061093e818585611c50565b600191505092915050565b60045481565b600a60009054906101000a900473ffffffffffffffffffffffffffffffffffffffff1681565b600080610980611c20565b9050806002015491505090565b600080610998611c48565b90506109a5858285611c62565b6109b0858585611cf6565b60019150509392505050565b60006012905090565b6109cd611dea565b6109d78282611e71565b5050565b6109ec6109e6611c48565b82611ef3565b50565b6109f7611dea565b600860008273ffffffffffffffffffffffffffffffffffffffff1673ffffffffffffffffffffffffffffffffffffffff16815260200190815260200160002060009054906101000a900460ff1615610a84576040517f08c379a0000000000000000000000000000000000000000000000000000000008152600401610a7b906136f0565b60405180910390fd5b8073ffffffffffffffffffffffffffffffffffffffff16610aa3611c48565b73ffffffffffffffffffffffffffffffffffffffff1603610af9576040517f08c379a0000000000000000000000000000000000000000000000000000000008152600401610af09061375c565b60405180910390fd5b6001600860008373ffffffffffffffffffffffffffffffffffffffff1673ffffffffffffffffffffffffffffffffffffffff16815260200190815260200160002060006101000a81548160ff02191690831515021790555050565b610b5c611f75565b610b658261205b565b610b6f8282612066565b5050565b6000610b7d612185565b7f360894a13ba1a3210667c828492db98dca3e2076cc3735a920a3ca505d382bbc60001b905090565b610bae611dea565b600860008273ffffffffffffffffffffffffffffffffffffffff1673ffffffffffffffffffffffffffffffffffffffff16815260200190815260200160002060009054906101000a900460ff16610c3a576040517f08c379a0000000000000000000000000000000000000000000000000000000008152600401610c31906137c8565b60405180910390fd5b8073ffffffffffffffffffffffffffffffffffffffff16610c59611c48565b73ffffffffffffffffffffffffffffffffffffffff1603610caf576040517f08c379a0000000000000000000000000000000000000000000000000000000008152600401610ca69061385a565b60405180910390fd5b6000600860008373ffffffffffffffffffffffffffffffffffffffff1673ffffffffffffffffffffffffffffffffffffffff16815260200190815260200160002060006101000a81548160ff02191690831515021790555050565b610d12611dea565b600073ffffffffffffffffffffffffffffffffffffffff168173ffffffffffffffffffffffffffffffffffffffff1603610d81576040517f08c379a0000000000000000000000000000000000000000000000000000000008152600401610d78906138ec565b60405180910390fd5b806000806101000a81548173ffffffffffffffffffffffffffffffffffffffff021916908373ffffffffffffffffffffffffffffffffffffffff1602179055507f2026f0b479f097ea9d4c74dac26e5271ba4d59931603970da5458ea8aa3dcf3760008054906101000a900473ffffffffffffffffffffffffffffffffffffffff16604051610e1091906135e9565b60405180910390a150565b610e23611dea565b612710811115610e68576040517f08c379a0000000000000000000000000000000000000000000000000000000008152600401610e5f9061397e565b60405180910390fd5b806005819055507f28ad5f14a54b644d089d89d6140175fbbf7199a6fa1275e827904c157f491546600554604051610ea0919061329c565b60405180910390a150565b600080610eb6611c20565b90508060000160008473ffffffffffffffffffffffffffffffffffffffff1673ffffffffffffffffffffffffffffffffffffffff16815260200190815260200160002054915050919050565b610f0a611dea565b610f14600061220c565b565b610f1e611dea565b600073ffffffffffffffffffffffffffffffffffffffff168173ffffffffffffffffffffffffffffffffffffffff1603610f8d576040517f08c379a0000000000000000000000000000000000000000000000000000000008152600401610f8490613a10565b60405180910390fd5b80600160006101000a81548173ffffffffffffffffffffffffffffffffffffffff021916908373ffffffffffffffffffffffffffffffffffffffff1602179055507f7404946ba3969d72cc11e8a0c21a8ab3b8dddeb41e78f235dfad9ffcda3f617c600160009054906101000a900473ffffffffffffffffffffffffffffffffffffffff1660405161101f91906135e9565b60405180910390a150565b60008054906101000a900473ffffffffffffffffffffffffffffffffffffffff1681565b6110608261105a611c48565b83611c62565b61106a8282611ef3565b5050565b60035481565b61107c611dea565b6127108111156110c1576040517f08c379a00000000000000000000000000000000000000000000000000000000081526004016110b89061397e565b60405180910390fd5b806004819055507fd3f51aabcf3bcbd05f9260c8ccec9728da097c538dd797a90f527e255ae308386004546040516110f9919061329c565b60405180910390a150565b61110c611dea565b612710811115611151576040517f08c379a00000000000000000000000000000000000000000000000000000000081526004016111489061397e565b60405180910390fd5b806003819055507f153e5299255e24f1fd2ceee40599bfdc41290fd92340ff6173fc24efd6c299a6600354604051611189919061329c565b60405180910390a150565b60008061119f6122e3565b90508060000160009054906101000a900473ffffffffffffffffffffffffffffffffffffffff1691505090565b606060006111d8611c20565b90508060040180546111e990613673565b80601f016020809104026020016040519081016040528092919081815260200182805461121590613673565b80156112625780601f1061123757610100808354040283529160200191611262565b820191906000526020600020905b81548152906001019060200180831161124557829003601f168201915b505050505091505090565b600080611278611c48565b9050611285818585611cf6565b600191505092915050565b6040518060400160405280600581526020017f352e302e3000000000000000000000000000000000000000000000000000000081525081565b6112d1611dea565b600073ffffffffffffffffffffffffffffffffffffffff168173ffffffffffffffffffffffffffffffffffffffff1603611340576040517f08c379a000000000000000000000000000000000000000000000000000000000815260040161133790613aa2565b60405180910390fd5b80600260006101000a81548173ffffffffffffffffffffffffffffffffffffffff021916908373ffffffffffffffffffffffffffffffffffffffff1602179055507f5d4a0c152f269a59530b6c3a84f5a90ac341c463c9e6d5d0d04cf75596776e4f600260009054906101000a900473ffffffffffffffffffffffffffffffffffffffff166040516113d291906135e9565b60405180910390a150565b600160009054906101000a900473ffffffffffffffffffffffffffffffffffffffff1681565b600061140d61230b565b905060008160000160089054906101000a900460ff1615905060008260000160009054906101000a900467ffffffffffffffff1690506000808267ffffffffffffffff1614801561145b5750825b9050600060018367ffffffffffffffff16148015611490575060003073ffffffffffffffffffffffffffffffffffffffff163b145b90508115801561149e575080155b156114d5576040517ff92ee8a900000000000000000000000000000000000000000000000000000000815260040160405180910390fd5b60018560000160006101000a81548167ffffffffffffffff021916908367ffffffffffffffff16021790555083156115255760018560000160086101000a81548160ff0219169083151502179055505b6115636040518060400160405280601681526020017f496e697469616c697a6174696f6e207374617274656400000000000000000000815250612333565b61156c866123cc565b6115746123e0565b6115e86040518060400160405280600481526020017f54657374000000000000000000000000000000000000000000000000000000008152506040518060400160405280600281526020017f54530000000000000000000000000000000000000000000000000000000000008152506123ea565b6115f0612400565b7307e43d33ce3ebe06a0bfaffc04aca37c4acbd3a56000806101000a81548173ffffffffffffffffffffffffffffffffffffffff021916908373ffffffffffffffffffffffffffffffffffffffff160217905550735ed81f9bc2402a2bbd78e381c9aa1edd99b90a55600160006101000a81548173ffffffffffffffffffffffffffffffffffffffff021916908373ffffffffffffffffffffffffffffffffffffffff16021790555073d436c10d791c7a9558950a251a049871811bb070600260006101000a81548173ffffffffffffffffffffffffffffffffffffffff021916908373ffffffffffffffffffffffffffffffffffffffff1602179055506116f66109bc565b600a6117029190613c24565b6305f5e1006117119190613c6f565b600781905550600a600381905550601460048190555060966005819055506117376109bc565b600a6117439190613c24565b6301312d006117529190613c6f565b60068190555061176433600754611e71565b600073a5e0829caced8ffdd4de3c43696c57f7d7a678ff905080600a60006101000a81548173ffffffffffffffffffffffffffffffffffffffff021916908373ffffffffffffffffffffffffffffffffffffffff1602179055508073ffffffffffffffffffffffffffffffffffffffff1663c45a01556040518163ffffffff1660e01b8152600401602060405180830381865afa158015611809573d6000803e3d6000fd5b505050506040513d601f19601f8201168201806040525081019061182d9190613cc6565b73ffffffffffffffffffffffffffffffffffffffff1663c9c65396308373ffffffffffffffffffffffffffffffffffffffff1663ad5c46486040518163ffffffff1660e01b8152600401602060405180830381865afa158015611894573d6000803e3d6000fd5b505050506040513d601f19601f820116820180604052508101906118b89190613cc6565b6040518363ffffffff1660e01b81526004016118d5929190613cf3565b6020604051808303816000875af11580156118f4573d6000803e3d6000fd5b505050506040513d601f19601f820116820180604052508101906119189190613cc6565b600b60006101000a81548173ffffffffffffffffffffffffffffffffffffffff021916908373ffffffffffffffffffffffffffffffffffffffff1602179055506119a533600a60009054906101000a900473ffffffffffffffffffffffffffffffffffffffff167fffffffffffffffffffffffffffffffffffffffffffffffffffffffffffffffff611c50565b6119f230600a60009054906101000a900473ffffffffffffffffffffffffffffffffffffffff167fffffffffffffffffffffffffffffffffffffffffffffffffffffffffffffffff611c50565b508315611a4f5760008560000160086101000a81548160ff0219169083151502179055507fc7f505b2f371ae2175ee4913f4499e1f2633a7b5936321eed1cdaeb6115181d26001604051611a469190613d6b565b60405180910390a15b505050505050565b600b60009054906101000a900473ffffffffffffffffffffffffffffffffffffffff1681565b60065481565b600080611a8e611c20565b90508060010160008573ffffffffffffffffffffffffffffffffffffffff1673ffffffffffffffffffffffffffffffffffffffff16815260200190815260200160002060008473ffffffffffffffffffffffffffffffffffffffff1673ffffffffffffffffffffffffffffffffffffffff1681526020019081526020016000205491505092915050565b60055481565b611b26611dea565b600073ffffffffffffffffffffffffffffffffffffffff168173ffffffffffffffffffffffffffffffffffffffff1603611b985760006040517f1e4fbdf7000000000000000000000000000000000000000000000000000000008152600401611b8f91906135e9565b60405180910390fd5b611ba18161220c565b50565b6000600860008373ffffffffffffffffffffffffffffffffffffffff1673ffffffffffffffffffffffffffffffffffffffff16815260200190815260200160002060009054906101000a900460ff169050919050565b600260009054906101000a900473ffffffffffffffffffffffffffffffffffffffff1681565b60007f52c63247e1f47db19d5ce0460030c497f067ca4cebf71ba98eeadabe20bace00905090565b600033905090565b611c5d838383600161240a565b505050565b6000611c6e8484611a83565b90507fffffffffffffffffffffffffffffffffffffffffffffffffffffffffffffffff8114611cf05781811015611ce0578281836040517ffb8f41b2000000000000000000000000000000000000000000000000000000008152600401611cd793929190613d86565b60405180910390fd5b611cef8484848403600061240a565b5b50505050565b600073ffffffffffffffffffffffffffffffffffffffff168373ffffffffffffffffffffffffffffffffffffffff1603611d685760006040517f96c6fd1e000000000000000000000000000000000000000000000000000000008152600401611d5f91906135e9565b60405180910390fd5b600073ffffffffffffffffffffffffffffffffffffffff168273ffffffffffffffffffffffffffffffffffffffff1603611dda5760006040517fec442f05000000000000000000000000000000000000000000000000000000008152600401611dd191906135e9565b60405180910390fd5b611de58383836125f0565b505050565b611df2611c48565b73ffffffffffffffffffffffffffffffffffffffff16611e10611194565b73ffffffffffffffffffffffffffffffffffffffff1614611e6f57611e33611c48565b6040517f118cdaa7000000000000000000000000000000000000000000000000000000008152600401611e6691906135e9565b60405180910390fd5b565b600073ffffffffffffffffffffffffffffffffffffffff168273ffffffffffffffffffffffffffffffffffffffff1603611ee35760006040517fec442f05000000000000000000000000000000000000000000000000000000008152600401611eda91906135e9565b60405180910390fd5b611eef600083836125f0565b5050565b600073ffffffffffffffffffffffffffffffffffffffff168273ffffffffffffffffffffffffffffffffffffffff1603611f655760006040517f96c6fd1e000000000000000000000000000000000000000000000000000000008152600401611f5c91906135e9565b60405180910390fd5b611f71826000836125f0565b5050565b7f000000000000000000000000000000000000000000000000000000000000000073ffffffffffffffffffffffffffffffffffffffff163073ffffffffffffffffffffffffffffffffffffffff16148061202257507f000000000000000000000000000000000000000000000000000000000000000073ffffffffffffffffffffffffffffffffffffffff166120096129b2565b73ffffffffffffffffffffffffffffffffffffffff1614155b15612059576040517fe07c8dba00000000000000000000000000000000000000000000000000000000815260040160405180910390fd5b565b612063611dea565b50565b8173ffffffffffffffffffffffffffffffffffffffff166352d1902d6040518163ffffffff1660e01b8152600401602060405180830381865afa9250505080156120ce57506040513d601f19601f820116820180604052508101906120cb9190613de9565b60015b61210f57816040517f4c9c8ce300000000000000000000000000000000000000000000000000000000815260040161210691906135e9565b60405180910390fd5b7f360894a13ba1a3210667c828492db98dca3e2076cc3735a920a3ca505d382bbc60001b811461217657806040517faa1d49a400000000000000000000000000000000000000000000000000000000815260040161216d91906135bf565b60405180910390fd5b6121808383612a09565b505050565b7f000000000000000000000000000000000000000000000000000000000000000073ffffffffffffffffffffffffffffffffffffffff163073ffffffffffffffffffffffffffffffffffffffff161461220a576040517fe07c8dba00000000000000000000000000000000000000000000000000000000815260040160405180910390fd5b565b60006122166122e3565b905060008160000160009054906101000a900473ffffffffffffffffffffffffffffffffffffffff169050828260000160006101000a81548173ffffffffffffffffffffffffffffffffffffffff021916908373ffffffffffffffffffffffffffffffffffffffff1602179055508273ffffffffffffffffffffffffffffffffffffffff168173ffffffffffffffffffffffffffffffffffffffff167f8be0079c531659141344cd1fd0a4f28419497f9722a3daafe3b4186f6b6457e060405160405180910390a3505050565b60007f9016d09d72d40fdae2fd8ceac6b6234c7706214fd39c1cd1e609a0528c199300905090565b60007ff0c57e16840df040f15088dc2f81fe391c3923bec73e23a9662efc9c229c6a00905090565b6123c981604051602401612347919061314d565b6040516020818303038152906040527f41304fac000000000000000000000000000000000000000000000000000000007bffffffffffffffffffffffffffffffffffffffffffffffffffffffff19166020820180517bffffffffffffffffffffffffffffffffffffffffffffffffffffffff8381831617835250505050612a7c565b50565b6123d4612a96565b6123dd81612ad6565b50565b6123e8612a96565b565b6123f2612a96565b6123fc8282612b5c565b5050565b612408612a96565b565b6000612414611c20565b9050600073ffffffffffffffffffffffffffffffffffffffff168573ffffffffffffffffffffffffffffffffffffffff16036124885760006040517fe602df0500000000000000000000000000000000000000000000000000000000815260040161247f91906135e9565b60405180910390fd5b600073ffffffffffffffffffffffffffffffffffffffff168473ffffffffffffffffffffffffffffffffffffffff16036124fa5760006040517f94280d620000000000000000000000000000000000000000000000000000000081526004016124f191906135e9565b60405180910390fd5b828160010160008773ffffffffffffffffffffffffffffffffffffffff1673ffffffffffffffffffffffffffffffffffffffff16815260200190815260200160002060008673ffffffffffffffffffffffffffffffffffffffff1673ffffffffffffffffffffffffffffffffffffffff1681526020019081526020016000208190555081156125e9578373ffffffffffffffffffffffffffffffffffffffff168573ffffffffffffffffffffffffffffffffffffffff167f8c5be1e5ebec7d5bd14f71427d1e84f3dd0314c0f7b2291e5b200ac8c7c3b925856040516125e0919061329c565b60405180910390a35b5050505050565b60008111612633576040517f08c379a000000000000000000000000000000000000000000000000000000000815260040161262a90613e88565b60405180910390fd5b600860008473ffffffffffffffffffffffffffffffffffffffff1673ffffffffffffffffffffffffffffffffffffffff16815260200190815260200160002060009054906101000a900460ff16156126c0576040517f08c379a00000000000000000000000000000000000000000000000000000000081526004016126b790613ef4565b60405180910390fd5b600860008373ffffffffffffffffffffffffffffffffffffffff1673ffffffffffffffffffffffffffffffffffffffff16815260200190815260200160002060009054906101000a900460ff161561274d576040517f08c379a000000000000000000000000000000000000000000000000000000000815260040161274490613f60565b60405180910390fd5b612755611194565b73ffffffffffffffffffffffffffffffffffffffff168373ffffffffffffffffffffffffffffffffffffffff1614806127c05750612791611194565b73ffffffffffffffffffffffffffffffffffffffff168273ffffffffffffffffffffffffffffffffffffffff16145b806127f657503073ffffffffffffffffffffffffffffffffffffffff168373ffffffffffffffffffffffffffffffffffffffff16145b1561280b57612806838383612b99565b6129ad565b6000600b60009054906101000a900473ffffffffffffffffffffffffffffffffffffffff1673ffffffffffffffffffffffffffffffffffffffff168473ffffffffffffffffffffffffffffffffffffffff161490506000600b60009054906101000a900473ffffffffffffffffffffffffffffffffffffffff1673ffffffffffffffffffffffffffffffffffffffff168473ffffffffffffffffffffffffffffffffffffffff16149050600080600084806128c35750835b15612978576128d486600354612dd8565b92506128e286600454612dd8565b91506128f086600554612dd8565b905061291d8860008054906101000a900473ffffffffffffffffffffffffffffffffffffffff1685612b99565b61294a88600160009054906101000a900473ffffffffffffffffffffffffffffffffffffffff1684612b99565b61297788600260009054906101000a900473ffffffffffffffffffffffffffffffffffffffff1683612b99565b5b8082846129859190613f80565b61298f9190613f80565b8661299a9190613fb4565b95506129a7888888612b99565b50505050505b505050565b60006129e07f360894a13ba1a3210667c828492db98dca3e2076cc3735a920a3ca505d382bbc60001b612dfb565b60000160009054906101000a900473ffffffffffffffffffffffffffffffffffffffff16905090565b612a1282612e05565b8173ffffffffffffffffffffffffffffffffffffffff167fbc7cd75a20ee27fd9adebab32041f755214dbc6bffa90cc0225b39da2e5c2d3b60405160405180910390a2600081511115612a6f57612a698282612ed2565b50612a78565b612a77612f56565b5b5050565b612a9381612a8b612f93612fb4565b63ffffffff16565b50565b612a9e612fbf565b612ad4576040517fd7e6bcf800000000000000000000000000000000000000000000000000000000815260040160405180910390fd5b565b612ade612a96565b600073ffffffffffffffffffffffffffffffffffffffff168173ffffffffffffffffffffffffffffffffffffffff1603612b505760006040517f1e4fbdf7000000000000000000000000000000000000000000000000000000008152600401612b4791906135e9565b60405180910390fd5b612b598161220c565b50565b612b64612a96565b6000612b6e611c20565b905082816003019081612b81919061418a565b5081816004019081612b93919061418a565b50505050565b6000612ba3611c20565b9050600073ffffffffffffffffffffffffffffffffffffffff168473ffffffffffffffffffffffffffffffffffffffff1603612bf95781816002016000828254612bed9190613f80565b92505081905550612cd2565b60008160000160008673ffffffffffffffffffffffffffffffffffffffff1673ffffffffffffffffffffffffffffffffffffffff16815260200190815260200160002054905082811015612c88578481846040517fe450d38c000000000000000000000000000000000000000000000000000000008152600401612c7f93929190613d86565b60405180910390fd5b8281038260000160008773ffffffffffffffffffffffffffffffffffffffff1673ffffffffffffffffffffffffffffffffffffffff16815260200190815260200160002081905550505b600073ffffffffffffffffffffffffffffffffffffffff168373ffffffffffffffffffffffffffffffffffffffff1603612d1d57818160020160008282540392505081905550612d6d565b818160000160008573ffffffffffffffffffffffffffffffffffffffff1673ffffffffffffffffffffffffffffffffffffffff168152602001908152602001600020600082825401925050819055505b8273ffffffffffffffffffffffffffffffffffffffff168473ffffffffffffffffffffffffffffffffffffffff167fddf252ad1be2c89b69c2b068fc378daa952ba7f163c4a11628f55a4df523b3ef84604051612dca919061329c565b60405180910390a350505050565b60006127108284612de99190613c6f565b612df3919061428b565b905092915050565b6000819050919050565b60008173ffffffffffffffffffffffffffffffffffffffff163b03612e6157806040517f4c9c8ce3000000000000000000000000000000000000000000000000000000008152600401612e5891906135e9565b60405180910390fd5b80612e8e7f360894a13ba1a3210667c828492db98dca3e2076cc3735a920a3ca505d382bbc60001b612dfb565b60000160006101000a81548173ffffffffffffffffffffffffffffffffffffffff021916908373ffffffffffffffffffffffffffffffffffffffff16021790555050565b60606000808473ffffffffffffffffffffffffffffffffffffffff1684604051612efc9190614303565b600060405180830381855af49150503d8060008114612f37576040519150601f19603f3d011682016040523d82523d6000602084013e612f3c565b606091505b5091509150612f4c858383612fdf565b9250505092915050565b6000341115612f91576040517fb398979f00000000000000000000000000000000000000000000000000000000815260040160405180910390fd5b565b60006a636f6e736f6c652e6c6f679050600080835160208501845afa505050565b6130b3819050919050565b6000612fc961230b565b60000160089054906101000a900460ff16905090565b606082612ff457612fef8261306e565b613066565b6000825114801561301c575060008473ffffffffffffffffffffffffffffffffffffffff163b145b1561305e57836040517f9996b31500000000000000000000000000000000000000000000000000000000815260040161305591906135e9565b60405180910390fd5b819050613067565b5b9392505050565b6000815111156130815780518082602001fd5b6040517f1425ea4200000000000000000000000000000000000000000000000000000000815260040160405180910390fd5b6130bb61431a565b565b600081519050919050565b600082825260208201905092915050565b60005b838110156130f75780820151818401526020810190506130dc565b60008484015250505050565b6000601f19601f8301169050919050565b600061311f826130bd565b61312981856130c8565b93506131398185602086016130d9565b61314281613103565b840191505092915050565b600060208201905081810360008301526131678184613114565b905092915050565b6000604051905090565b600080fd5b600080fd5b600073ffffffffffffffffffffffffffffffffffffffff82169050919050565b60006131ae82613183565b9050919050565b6131be816131a3565b81146131c957600080fd5b50565b6000813590506131db816131b5565b92915050565b6000819050919050565b6131f4816131e1565b81146131ff57600080fd5b50565b600081359050613211816131eb565b92915050565b6000806040838503121561322e5761322d613179565b5b600061323c858286016131cc565b925050602061324d85828601613202565b9150509250929050565b60008115159050919050565b61326c81613257565b82525050565b60006020820190506132876000830184613263565b92915050565b613296816131e1565b82525050565b60006020820190506132b1600083018461328d565b92915050565b6000819050919050565b60006132dc6132d76132d284613183565b6132b7565b613183565b9050919050565b60006132ee826132c1565b9050919050565b6000613300826132e3565b9050919050565b613310816132f5565b82525050565b600060208201905061332b6000830184613307565b92915050565b60008060006060848603121561334a57613349613179565b5b6000613358868287016131cc565b9350506020613369868287016131cc565b925050604061337a86828701613202565b9150509250925092565b600060ff82169050919050565b61339a81613384565b82525050565b60006020820190506133b56000830184613391565b92915050565b6000602082840312156133d1576133d0613179565b5b60006133df84828501613202565b91505092915050565b6000602082840312156133fe576133fd613179565b5b600061340c848285016131cc565b91505092915050565b600080fd5b600080fd5b7f4e487b7100000000000000000000000000000000000000000000000000000000600052604160045260246000fd5b61345782613103565b810181811067ffffffffffffffff821117156134765761347561341f565b5b80604052505050565b600061348961316f565b9050613495828261344e565b919050565b600067ffffffffffffffff8211156134b5576134b461341f565b5b6134be82613103565b9050602081019050919050565b82818337600083830152505050565b60006134ed6134e88461349a565b61347f565b9050828152602081018484840111156135095761350861341a565b5b6135148482856134cb565b509392505050565b600082601f83011261353157613530613415565b5b81356135418482602086016134da565b91505092915050565b6000806040838503121561356157613560613179565b5b600061356f858286016131cc565b925050602083013567ffffffffffffffff8111156135905761358f61317e565b5b61359c8582860161351c565b9150509250929050565b6000819050919050565b6135b9816135a6565b82525050565b60006020820190506135d460008301846135b0565b92915050565b6135e3816131a3565b82525050565b60006020820190506135fe60008301846135da565b92915050565b6000806040838503121561361b5761361a613179565b5b6000613629858286016131cc565b925050602061363a858286016131cc565b9150509250929050565b7f4e487b7100000000000000000000000000000000000000000000000000000000600052602260045260246000fd5b6000600282049050600182168061368b57607f821691505b60208210810361369e5761369d613644565b5b50919050565b7f4163636f756e7420697320616c726561647920626c61636b6c69737465640000600082015250565b60006136da601e836130c8565b91506136e5826136a4565b602082019050919050565b60006020820190508181036000830152613709816136cd565b9050919050565b7f43616e6e6f7420626c61636b6c6973742073656c660000000000000000000000600082015250565b60006137466015836130c8565b915061375182613710565b602082019050919050565b6000602082019050818103600083015261377581613739565b9050919050565b7f4163636f756e74206973206e6f7420626c61636b6c6973746564000000000000600082015250565b60006137b2601a836130c8565b91506137bd8261377c565b602082019050919050565b600060208201905081810360008301526137e1816137a5565b9050919050565b7f43616e6e6f742072656d6f76652073656c662066726f6d20626c61636b6c697360008201527f7400000000000000000000000000000000000000000000000000000000000000602082015250565b60006138446021836130c8565b915061384f826137e8565b604082019050919050565b6000602082019050818103600083015261387381613837565b9050919050565b7f4d61726b6574696e672077616c6c65742063616e6e6f74206265207a65726f2060008201527f6164647265737300000000000000000000000000000000000000000000000000602082015250565b60006138d66027836130c8565b91506138e18261387a565b604082019050919050565b60006020820190508181036000830152613905816138c9565b9050919050565b7f5461782070657263656e746167652063616e6e6f74206578636565642031303060008201527f2500000000000000000000000000000000000000000000000000000000000000602082015250565b60006139686021836130c8565b91506139738261390c565b604082019050919050565b600060208201905081810360008301526139978161395b565b9050919050565b7f4465762077616c6c65742063616e6e6f74206265207a65726f2061646472657360008201527f7300000000000000000000000000000000000000000000000000000000000000602082015250565b60006139fa6021836130c8565b9150613a058261399e565b604082019050919050565b60006020820190508181036000830152613a29816139ed565b9050919050565b7f737461696e6162696c6974792077616c6c65742063616e6e6f74206265207a6560008201527f726f206164647265737300000000000000000000000000000000000000000000602082015250565b6000613a8c602a836130c8565b9150613a9782613a30565b604082019050919050565b60006020820190508181036000830152613abb81613a7f565b9050919050565b7f4e487b7100000000000000000000000000000000000000000000000000000000600052601160045260246000fd5b60008160011c9050919050565b6000808291508390505b6001851115613b4857808604811115613b2457613b23613ac2565b5b6001851615613b335780820291505b8081029050613b4185613af1565b9450613b08565b94509492505050565b600082613b615760019050613c1d565b81613b6f5760009050613c1d565b8160018114613b855760028114613b8f57613bbe565b6001915050613c1d565b60ff841115613ba157613ba0613ac2565b5b8360020a915084821115613bb857613bb7613ac2565b5b50613c1d565b5060208310610133831016604e8410600b8410161715613bf35782820a905083811115613bee57613bed613ac2565b5b613c1d565b613c008484846001613afe565b92509050818404811115613c1757613c16613ac2565b5b81810290505b9392505050565b6000613c2f826131e1565b9150613c3a83613384565b9250613c677fffffffffffffffffffffffffffffffffffffffffffffffffffffffffffffffff8484613b51565b905092915050565b6000613c7a826131e1565b9150613c85836131e1565b9250828202613c93816131e1565b91508282048414831517613caa57613ca9613ac2565b5b5092915050565b600081519050613cc0816131b5565b92915050565b600060208284031215613cdc57613cdb613179565b5b6000613cea84828501613cb1565b91505092915050565b6000604082019050613d0860008301856135da565b613d1560208301846135da565b9392505050565b6000819050919050565b600067ffffffffffffffff82169050919050565b6000613d55613d50613d4b84613d1c565b6132b7565b613d26565b9050919050565b613d6581613d3a565b82525050565b6000602082019050613d806000830184613d5c565b92915050565b6000606082019050613d9b60008301866135da565b613da8602083018561328d565b613db5604083018461328d565b949350505050565b613dc6816135a6565b8114613dd157600080fd5b50565b600081519050613de381613dbd565b92915050565b600060208284031215613dff57613dfe613179565b5b6000613e0d84828501613dd4565b91505092915050565b7f5472616e7366657220616d6f756e74206d75737420626520677265617465722060008201527f7468616e207a65726f0000000000000000000000000000000000000000000000602082015250565b6000613e726029836130c8565b9150613e7d82613e16565b604082019050919050565b60006020820190508181036000830152613ea181613e65565b9050919050565b7f53656e64657220697320626c61636b6c69737465640000000000000000000000600082015250565b6000613ede6015836130c8565b9150613ee982613ea8565b602082019050919050565b60006020820190508181036000830152613f0d81613ed1565b9050919050565b7f526563697069656e7420697320626c61636b6c69737465640000000000000000600082015250565b6000613f4a6018836130c8565b9150613f5582613f14565b602082019050919050565b60006020820190508181036000830152613f7981613f3d565b9050919050565b6000613f8b826131e1565b9150613f96836131e1565b9250828201905080821115613fae57613fad613ac2565b5b92915050565b6000613fbf826131e1565b9150613fca836131e1565b9250828203905081811115613fe257613fe1613ac2565b5b92915050565b60008190508160005260206000209050919050565b60006020601f8301049050919050565b600082821b905092915050565b60006008830261404a7fffffffffffffffffffffffffffffffffffffffffffffffffffffffffffffffff8261400d565b614054868361400d565b95508019841693508086168417925050509392505050565b600061408761408261407d846131e1565b6132b7565b6131e1565b9050919050565b6000819050919050565b6140a18361406c565b6140b56140ad8261408e565b84845461401a565b825550505050565b600090565b6140ca6140bd565b6140d5818484614098565b505050565b5b818110156140f9576140ee6000826140c2565b6001810190506140db565b5050565b601f82111561413e5761410f81613fe8565b61411884613ffd565b81016020851015614127578190505b61413b61413385613ffd565b8301826140da565b50505b505050565b600082821c905092915050565b600061416160001984600802614143565b1980831691505092915050565b600061417a8383614150565b9150826002028217905092915050565b614193826130bd565b67ffffffffffffffff8111156141ac576141ab61341f565b5b6141b68254613673565b6141c18282856140fd565b600060209050601f8311600181146141f457600084156141e2578287015190505b6141ec858261416e565b865550614254565b601f19841661420286613fe8565b60005b8281101561422a57848901518255600182019150602085019450602081019050614205565b868310156142475784890151614243601f891682614150565b8355505b6001600288020188555050505b505050505050565b7f4e487b7100000000000000000000000000000000000000000000000000000000600052601260045260246000fd5b6000614296826131e1565b91506142a1836131e1565b9250826142b1576142b061425c565b5b828204905092915050565b600081519050919050565b600081905092915050565b60006142dd826142bc565b6142e781856142c7565b93506142f78185602086016130d9565b80840191505092915050565b600061430f82846142d2565b915081905092915050565b7f4e487b7100000000000000000000000000000000000000000000000000000000600052605160045260246000fdfea26469706673582212209a22d7f9062324f0c4da5e7e9ae40bd8b20a2adeaa44d31d0f182b1031fec03e64736f6c63430008140033",
  "linkReferences": {},
  "deployedLinkReferences": {}
}